:020000040800F2
:1000000058250020D5020008DD240008F51D000851
:10001000D9240008891C00084B31000800000000AA
:10002000000000000000000000000000F9260008A9
:10003000F91C0008000000006D25000811280008C8
:10004000EF020008EF020008EF020008EF020008CC
:10005000EF020008EF020008EF020008EF020008BC
:10006000EF020008EF020008EF020008EF020008AC
:10007000EF020008EF020008EF020008EF0200089C
:10008000EF020008EF020008EF020008EF0200088C
:10009000EF020008EF020008EF020008EF0200087C
:1000A000EF020008EF020008EF020008EF0200086C
:1000B000EF02000869290008D5290008EF020008AE
:1000C000EF020008EF020008EF020008EF0200084C
:1000D000EF020008A92D0008352E0008EF020008E5
:1000E000EF020008EF020008EF020008EF0200082C
:1000F000EF020008EF020008EF020008EF0200081C
:10010000EF020008EF020008EF020008EF0200080B
:10011000EF020008EF020008EF020008EF020008FB
:10012000EF020008EF020008EF020008EF020008EB
:10013000EF020008EF020008EF020008EF020008DB
:10014000EF020008EF020008EF020008EF020008CB
:10015000EF020008EF020008EF020008EF020008BB
:10016000EF020008EF020008EF020008EF020008AB
:10017000EF020008EF020008EF020008EF0200089B
:10018000EF020008EF02000800F002F800F092F819
:100190000AA090E8000C82448344AAF10107DA45E2
:1001A00001D100F087F8AFF2090EBAE80F0013F0A2
:1001B000010F18BFFB1A43F001031847385900001C
:1001C00058590000103A24BF78C878C1FAD85207AD
:1001D00024BF30C830C144BF04680C6070470000C1
:1001E0000023002400250026103A28BF78C1FBD840
:1001F000520728BF30C148BF0B6070476E2900F01E
:100200001383702900F06B84662905F07E836529CD
:1002100005F07B83672905F078836129AFF30080BF
:1002200003681B0A28BF41F08001692900F0C082E1
:10023000642900F0BD82752900F0BA826F2900F0B0
:10024000F883782900F03784E92900F09383E429C2
:1002500000F09083F52900F08D83EF2900F0F583FD
:10026000F82900F036840368DB0928BF41F08001DB
:10027000632900F01483732900F01983E32900F047
:10028000F086F32900F0F586002070471FB505F0D1
:1002900037FB00F03FFF04000020002105F01AFBAF
:1002A000401C60600020002105F0FEFAE0601FBDE8
:1002B00010B510BD00F001FF1146FFF7E7FF03F096
:1002C00075FC00F0DDFF03B4FFF7F2FF03BC03F0A1
:1002D00006F800000948804709480047FEE7FEE7A6
:1002E000FEE7FEE7FEE7FEE7FEE7FEE7FEE7FEE7E6
:1002F00004480549054A064B7047000015280008C8
:1003000089010008581F002058250020582100208E
:1003100058210020704700001CB50C46064B7B445A
:1003200069460090204600F098FA0446002069468D
:1003300000F0A6FA20461CBD5F0500000FB41CB5F6
:10034000084B06AA7B4469460090059800F085FAA0
:1003500004460020694600F093FA20461CBC5DF874
:1003600014FB00003905000070B50C460546012A53
:1003700005D02878800600D5EA69002302E0012331
:1003800005E05B1C934202D2E05C0028F9D1A86929
:10039000E618C01AA861286A18442862284600F0A6
:1003A000CEF904E0D5E9012114F8010B9047B442DD
:1003B000F8D3284600F0D9F970BD00002DE9F05FB0
:1003C000894604464FF0000ADFF874B1FB44C0F8D8
:1003D00020A02046E1688847002874D0252806D050
:1003E000D4E901219047206A401C2062F1E70026F1
:1003F0005F462046E16888472028054607DB312D07
:1004000005D2781910F8200C08B10643F1E7B007BF
:1004100001D526F00406C4F81CA00027C4F818A0D3
:100420002A2D09D0284602F053FF38B304EB870881
:10043000303DC8F8185019E059F8041B204604EB69
:1004400087029161E1688847012F054618D1E0696C
:10045000002820DA26F020061DE0D8F8180000EB6E
:10046000800005EB40003038C8F818002046E168ED
:100470008847054602F02CFF0028EED1012F0AD054
:100480002E2D08D12046E16888477F1C0546022FA3
:1004900046F02006C4DBA069002803DA404246F09B
:1004A0000106A061F00701D026F010066C2D0BD0DC
:1004B000682D09D04C2D39D06A2D35D0742D35D00A
:1004C0007A2D33D016E038E0E1682F462046884781
:1004D000B842054609D16C2F26D04FF48060E16800
:1004E000064320468847054604E06C2F1AD04FF497
:1004F000807006430DB3A5F14100192802D82035BC
:1005000046F400664A462946204626604E46FFF7D6
:1005100075FE80B101280BD0F61D26F0070000F112
:10052000080956E74020E4E78020D8E70020D6E716
:1005300006F104094DE7284652E7206ABDE8F09F1E
:100540007E55000030B505460B462A4613F8014B90
:1005500012F8010B08B1A042F8D01CB1002802D05B
:100560006D1CF1E7284630BD10B5431C02E010F8C1
:10057000011B71B18107FAD14FF0013202C88C1A08
:100580008C4314EAC211F9D0C01A0A0603D0C01E67
:1005900010BDC01A10BD0A0401D0801E10BD090292
:1005A000FCD0401E10BD032A40F2308010F0030C36
:1005B00000F0158011F8013BBCF1020F624498BFB6
:1005C00011F801CB00F8013B38BF11F8013BA2F153
:1005D000040298BF00F801CB38BF00F8013B11F0CE
:1005E000030300F02580083AC0F0088051F8043B6E
:1005F000083A51F804CBA0E80810F5E7121D5CBFDB
:1006000051F8043B40F8043BAFF30080D20724BF0D
:1006100011F8013B11F801CB48BF11F8012B24BFA1
:1006200000F8013B00F801CB48BF00F8012B7047F0
:1006300010B5203AC0F00B80B1E81850203AA0E87D
:100640001850B1E81850A0E81850BFF4F5AF5FEAB1
:10065000027C24BFB1E81850A0E8185044BF18C964
:1006600018C0BDE810405FEA827C24BF51F8043B0B
:1006700040F8043B08BF7047D20728BF31F8023B5F
:1006800048BF11F8012B28BF20F8023B48BF00F8F3
:10069000012B704702F0FF0343EA032242EA0242C1
:1006A00000F002B84FF000020429C0F0128010F0F0
:1006B000030C00F01B80CCF1040CBCF1020F18BF3E
:1006C00000F8012BA8BF20F8022BA1EB0C0100F0D1
:1006D0000DB85FEAC17C24BF00F8012B00F8012BA4
:1006E00048BF00F8012B70474FF0000200B51346D9
:1006F00094469646203922BFA0E80C50A0E80C5042
:10070000B1F12001BFF4F7AF090728BFA0E80C50F2
:1007100048BF0CC05DF804EB890028BF40F8042BEB
:1007200008BF704748BF20F8022B11F0804F18BF58
:1007300000F8012B7047704770477047704770B5DD
:10074000044685690068C10601D5302600E02026F0
:10075000C00707D070BDD4E9012130469047206A18
:10076000401C20626D1EF6D570BD70B504468569CB
:100770000078C00707D170BDD4E90121202090473F
:10078000206A401C20626D1EF6D570BD09684A05BE
:1007900001D540B27047C905FCD500B27047096861
:1007A0004A0501D5C0B27047C905FCD580B2704773
:1007B0002DE9F0410646002410687529314616A53A
:1007C00010D0FFF7E3FF002802DA404213A507E04C
:1007D00031688A0701D512A502E0490704D511A5A1
:1007E000012401E0FFF7DBFF00210A2206F12407C4
:1007F00009E0B0FBF2FCB0FBF2F302FB1C0030306E
:1008000078541846491C0028F3D123462A4630461E
:10081000BDE8F04100F0B3B9000000002D00000079
:100820002B0000002000000011680268006A5305D8
:1008300001D508700AE0D30501D5088006E013064B
:1008400003D5C217C1E9000200E00860012070472B
:1008500001694A1C02610878704700B58FB0CDE984
:1008600001310021059105497944CDE90310114674
:100870006846FFF7A3FD0FB000BD0000E5FFFFFFD6
:100880000A6802F8010B0A60704710B5436913B19A
:10089000AFF3008001E0FFF767FD012010BD127883
:1008A00000F124010A7000224A700122EDE711686C
:1008B0004FF0FF32E9E700002DE9FF5F15468A4659
:1008C0000446DFF8AC80F8440027D8E900103E4623
:1008D000CDE9001010E03AF816106A4602A800F0C0
:1008E000CCFB411C07D02178890603D5E269391871
:1008F00091420DD80744761C2078800602D5E06925
:10090000B84205DDAE42E6DB3AF816000028E2D137
:10091000A069C01BA0612046FFF711FFD8E90010B5
:10092000CDE90010002017E03AF818106A4602A836
:1009300000F0A3FBB0F1FF3F81460BD000250DF185
:10094000080B05E0D4E901211BF8050090476D1C58
:100950004D45F7D308F10100B0428046E4DB206A40
:10096000384420622046FFF700FFBDE8FF9F0000EB
:10097000965000002DE9F0418046D21D22F007027A
:100980000025D2E90002F52915A614D0011E72F146
:10099000000106DA0023D0EB030063EB020211A68C
:1009A00008E0D8F800108B0701D50FA602E0490730
:1009B00001D50EA601251146002408F1240704E004
:1009C00000F098F830323A55641C50EA0102F7D131
:1009D0002B46324621464046BDE8F04100F0CFB8F4
:1009E000000000002D0000002B000000200000008F
:1009F00030B4002100F1240408E002F00705D20819
:100A0000303542EA4372DB086554491C52EA03055B
:100A1000F3D10468002310A2250707D5A40600D44B
:100A200021B1C46901230DA2641EC46130BC00F071
:100A3000A6B810B5044621461068FFF7B0FE02467E
:100A40002046BDE810400023D2E7D21D22F0070166
:100A5000D1E90023CCE700000000000030000000D6
:100A6000F0B40D460188090502D5214C7C4402E012
:100A70001F4C7C440E34002100F1240608E002F0F3
:100A80000F071209E75D42EA03721B097754491CFC
:100A900052EA0307F3D102780023120704D5702D20
:100AA00006D009B1022311342246F0BC00F067B829
:100AB00001231034F8E770B504460D46214610684E
:100AC000FFF76DFE024629462046BDE87040002330
:100AD000C6E7D21D22F00703D3E90023C0E703686D
:100AE000126843F0200303600823C3610023B7E7C3
:100AF000F84E000030B5B0F10A024FEA900E71F1E5
:100B000000034EEA817EB0EB0E0061EB91014FEAEB
:100B1000101E4EEA017E10EB0E0041EB11114FEA60
:100B2000102E4EEA016E10EB0E0041EB11214FEA40
:100B3000104E4EEA014E10EB0E0041EB11414018F1
:100B400041F100014FEAD00040EA41704FEAD10183
:100B500010EB80054FEA810444EA907444EB0104F1
:100B60006D1944EB0404521BA3414FF0000348BF2E
:100B70000A3200D530BD401C41F1000130BD2DE9E5
:100B8000F0470D4699469246044600F12408016854
:100B9000880604D5E06921F01001216000E0012001
:100BA000A84201DD471B00E00027A1697A1902EB8A
:100BB0000900081AA0612078C00602D42046FFF779
:100BC000BEFD002608E0D4E901211AF8060090478E
:100BD000206A401C761C20624E45F4DB2078C0065B
:100BE0000AD52046FFF7ABFD06E0D4E9012130200D
:100BF0009047206A401C2062381EA7F10107F4DCF0
:100C000007E0D4E9012118F805009047206A401C4C
:100C10002062281EA5F10105F3DC2046FFF7A5FDA3
:100C20002078000602D50220BDE8F0870120FBE70E
:100C300070472DE9FF4F0C461E464FF0FF378BB033
:100C4000D2E90001DDF860800A908A46C1F30A55B6
:100C500005B93D46002108464FF00000BAF1000FEB
:100C600000F4400005DA00EB80004FF4400101EA97
:100C700050004FEA9059B9F1010F00DDB9460A98CA
:100C800050EA4A000ED044F61050A5F2FF35454315
:100C90002F14B8F1000F1ED07542291E1EDDC9F1B8
:100CA00000021CE0B8F1010F4FF0000001D030212C
:100CB00003E0F24305E02154401CB042FBDB304628
:100CC0000022002121540B99C1F80880C1E90020BD
:100CD0000FB0BDE8F08FBD1B6D1CDEE74A4600DAA1
:100CE000694206A800F05AFA06AB93E8070003AB86
:100CF00083E8070050460A9900F010FB8DE80700D2
:100D0000A0F500501F3800900398002D0ADD42F234
:100D10001F014A460844002303A90390684600F0D7
:100D200079FD09E0A0F500504A461F38002303A9C9
:100D30000390684600F083FD8DE807000004000C76
:100D400003D04FF0FF30410800E01046B8F1000F2B
:100D500003D00022009215461EE0751E05D4FFF751
:100D6000C9FE303262556D1EF9D5B34601220843E3
:100D700002D000227F1C04E02078302801D100221C
:100D80007F1E002A099784D01DE0112D07DAFFF796
:100D9000B1FE303262556D1C50EA0102F5D10843B4
:100DA00002D00098C8B10EE00021681E05E0235C67
:100DB000625C63542254401E491C8142F7DBAB46FF
:100DC000A81B401E0990002004F80B000B98099AFC
:100DD000C0F80880C0E9002B7AE711264FF0000820
:100DE00057E72DE9F04F88460446D21D22F007014F
:100DF00091B0D1E90001CDE90A0102F051FA0246B1
:100E00000B98C00F01D02D2007E02068810701D585
:100E10002B2002E0202101EAC000032A099001D022
:100E2000072A05DB03464146204600F077F90BE12F
:100E30002078800601D5E06900E00620B8F1650F52
:100E4000814606D0B8F1660F18D0B8F1670F70D19F
:100E500031E00020B9F1110F009001DB112301E016
:100E600009F101030AAA01A90CA8FFF7E2FEDDE9D6
:100E70000C70002609F10105834647E001204B462E
:100E800000904FF000470AAA01A90CA8FFF7D1FE75
:100E9000DDE90DB00C995D46002610B909F101009D
:100EA0000D18B9EB050003D4C0F1FF3609F10105B7
:100EB000A5EB09002BE0B9F1010F01DA4FF00109B0
:100EC0000020B9F1110F0090484601DD112300E028
:100ED00003460AAA01A90CA8FFF7ABFEDDE90C70D6
:100EE0004D4600268346207800070AD4AB4500DA39
:100EF0005D4601A8012D04DD411911F8011C3029BE
:100F000007D04F4502DA17F1040F04DA01208246B8
:100F10000FE06D1EEEE7002F02DCED1B3E4403E008
:100F2000781CA84200DD7D1CB81B00F1010A4FF0BF
:100F300000472078000703D4AA4501DB4FF0FF3AB1
:100F40000021B7F1004F0DF143088DF8431024D074
:100F500002202B23002F01DA7F422D230A21021EBB
:100F6000A0F1010000DC5FB197FBF1FC97FBF1F20F
:100F700001FB1C7C17460CF1300C08F801CDEEE7A4
:100F8000A8F1010003702188090501D5452100E081
:100F90006521A0F1010800F8011C09980FA9A1EB37
:100FA0000807FF1D00B10120411901EBEA70A1699A
:100FB0003844081A401EA0612078C00602D420469A
:100FC000FFF7BDFB099828B1D4E901219047206AB9
:100FD000401C20622078C00622D52046FFF7AFFBD8
:100FE0001EE0002E04DBB34502DD01A8805D00E0B9
:100FF0003020D4E901219047206A401C2062761CF1
:10100000AAF101005FEA000A0AD100F083F8C06883
:101010000168405CD4E901219047206A401C2062AD
:10102000281EA5F10105DCDC07E0D4E9012118F850
:10103000010B9047206A401C2062381EA7F101076F
:10104000F3DC2046FFF791FB032011B041E610B519
:10105000436913B1AFF3008001E0FFF72DFC0120DD
:1010600010BD128800F1240182840022C284012272
:10107000EDE711684FF0FF32E9E770B516460C4610
:10108000054600F03FF8036893F80101012806D0F7
:10109000FF2C0FD8185D68B101202C7070BDD3F8FB
:1010A00007013246214603F2071303442846BDE8F0
:1010B000704018474FF0FF3070BD754600F0EAF8F9
:1010C000AE4605006946534620F00700854618B035
:1010D00020B5FFF70DF9BDE820404FF000064FF0B6
:1010E00000074FF000084FF0000B21F00701AC465D
:1010F000ACE8C009ACE8C009ACE8C009ACE8C0097C
:101100008D46704710B500F005F8001D10BD00BFFA
:10111000C547000000487047181F00202DE9F04126
:101120001F46044603260168072A01F4006004DB19
:1011300008B116A505E016A503E008B115A500E065
:1011400015A521F010002060A069C01EA0610FB19C
:10115000401EA0612046FFF7F2FA4FB1D4E9012109
:1011600038469047206A401C2062C01C206206E07E
:10117000206AFAE7D4E9012115F8010B9047761EA1
:10118000F8D22046FFF7F1FABDE8F0814E414E005B
:101190006E616E00494E4600696E66002DE9F047AB
:1011A000814616468AB0354878440DC88DE80D0052
:1011B00032487844801C03AC0DC884E80D0041F629
:1011C0009B300844372190FBF1F290FBF1F5A5F13B
:1011D000800501FB12041B3C02D56442012000E0A3
:1011E0000020DFF898A080460027FA44AAF1BE0A42
:1011F0000EE0E0070AD03246684607EB47010123BC
:101200000AEB810100F01BFB8DE8070064107F1CD6
:10121000002CEED1194F7F44AE3F19E0E80715D0FE
:1012200007EB04100DF1180A90E80E008AE80E0092
:10123000C068F04201D1981908903246012306A9EE
:1012400003A800F0FCFA03AB83E807006D10641CF0
:10125000002DE3D14FF0010332466946B8F1000F8B
:1012600003A802D000F0D6FA01E000F0E8FAC9E9DC
:101270000001C9F808200AB0BDE8F0876048000006
:1012800010B50446AFF300802046BDE81040FFF7DC
:101290001AB8000000487047F81E00204FF0013CCB
:1012A00050F8042B51F8043B9A4221D1A2EB0C03D5
:1012B000934313EACC1317D150F8042B51F8043B95
:1012C0009A4215D1A2EB0C03934313EACC130BD132
:1012D00050F8042B51F8043B9A4209D1A2EB0C03BD
:1012E000934313EACC13DBD04FF00000704700BFEC
:1012F000D01A01BAB1FA81F101F0180122FA01F015
:10130000CB40C1F12001DBB2C0B2C01A2CFA01F30C
:10131000D11A914311EAC311E6D170475FEA400C3C
:1013200008BF91F0000F4FEA8C234FEAC12243EA35
:1013300051514FEA1C5018BF00F5F0404FEA300001
:1013400018BF41F000415FEA6C5C00F02980BCF1FD
:10135000FF3F08BF40F080407047130C06BF1204E7
:101360004FF0100C4FF0000C130E04BF12020CF1E2
:10137000080C130F04BF12010CF1040C930F04BFEF
:1013800092000CF1020CD30F04BF52000CF1010CBF
:1013900011464FF00002A0F11F00A0EB0C007047B7
:1013A00011F0004F08BF704731F000413FF4D5AF56
:1013B0000B0C06BF09044FF0100C4FF0000C0B0E85
:1013C00004BF09020CF1080C0B0F04BF09010CF15A
:1013D000040C8B0F04BF89000CF1020CCB0F04BF6F
:1013E00049000CF1010CCCF12003A0EB0C0022FA17
:1013F00003F302FA0CF241EA030100F10100704725
:1014000020F07F4C80EA030023F07F47ACEB07031A
:1014100003F57C5300F0004003F1FF032DE9804900
:101420004FEA154B09B44FEA144325EA0B4E24EA60
:1014300003480FF2042606EB132749083E785FEABB
:10144000320203FB0667C7F5000707FB06F64FEA03
:1014500054374FEAD64606F1020607FB066CCCF17C
:10146000005C4FEA1C472CEA074C07FB06F40CFB18
:1014700006F504EB15464FEA961634BF00204FF0F0
:1014800000404FEAD13706FB07FC4FEA1C4C0CFB2F
:101490000BF7D21B03FB0CF761EB07010CFB0EF7FC
:1014A000B0EB074072EB17420CFB08F734BFA2EB1E
:1014B0000742B2EB074261EB17414FEA0C444FEA97
:1014C000910706FB07FC4FEA1C4C0CFB0BF7B0EB3B
:1014D000C74072EB573203FB0CF734BFA2EBC74295
:1014E000B2EBC74261EB57310CFB0EF7B0EBC70014
:1014F00072EB57720CFB08F734BFA2EBC702B2EBDA
:10150000C70261EB5771039F4FEA816141EA921173
:1015100004EBCC044FEAD1374FEA826206FB07FCAA
:1015200042EA90124FEA80604FEA1C4C0CFB0BF72A
:10153000D21B03FB0CF761EB07010CFB0EF7B0EBC2
:10154000074072EB17420CFB08F734BFA2EB0742CF
:10155000B2EB074261EB17414FEA8C554FEA910716
:1015600004EB9C2406FB07FC4FEA1C4C0CFB0BF71E
:10157000B0EBC74072EB573203FB0CF734BFA2EB62
:10158000C742B2EBC74261EB57310CFB0EF7B0EB31
:10159000C70072EB57720CFB08F734BFA2EBC7020F
:1015A000B2EBC70261EB577115EB4C254FEA816135
:1015B00041EA92114FEA82624FEAD13742EA901231
:1015C00006FB07FC44F100044FEA80604FEA1C4C24
:1015D0000CFB0BF7D21B03FB0CF761EB07010CFBB9
:1015E0000EF7B0EB074072EB17420CFB08F734BF65
:1015F000A2EB0742B2EB074261EB174115EB1C155A
:101600004FEA813141EA92414FEA823242EA904206
:101610004FEA80304FEA0C7644F1000448EA034375
:101620004EEA0B484FF0000EB2EB080C71EB0307CB
:1016300024BF624639464EEB0E0E4FF0000B0018E9
:10164000524149414BEB0B0BB2EB080C71EB03071A
:101650007BF1000B24BF624639464EEB0E0E4FF075
:10166000000B0018524149414BEB0B0BB2EB080C3D
:1016700071EB03077BF1000B24BF624639464EEB4A
:101680000E0E51EA020718BF46F0010616EB0E7661
:1016900055F1000254F1000103D5BDE88901BDE810
:1016A0000088BDE88901BDE80048B619524141EB08
:1016B0000101A3F10103704780807F7E7D7C7B7AEE
:1016C0007978777676757473727171706F6E6E6DEE
:1016D0006C6C6B6A6A696868676666656464636394
:1016E00062616160605F5F5E5E5D5D5C5C5B5B5A1A
:1016F0005A59595858575756565555555454535387
:1017000052525251515050504F4F4F4E4E4D4D4DE1
:101710004C4C4C4B4B4B4A4A4A494949484848472C
:10172000474747464646454545444444444343436A
:101730004342424242414141002B9C4630D4770013
:101740002BD01CB54FEA370703B44FF010004FF011
:101750001001BAF1000F06D0BCF1000FDCBF40F061
:10176000080040F008014FF000000FBCBDE8104039
:101770000BF1010BBBF1010F08BF5FEA170722BF96
:1017800012F1010211F101014FF0004143F1000398
:1017900000F0004043EA00007047F9D35708D0E753
:1017A00046EA064613F1400F4FEA16461FDD13F1D5
:1017B000200FDFBF16430A46002120335B42BED014
:1017C000C3F1200746EA064602FA07F74FEA164633
:1017D00046EA0706C3F1200722FA03F201FA07F7E7
:1017E00021FA03F14FF0000342EA0702A7E746EAB5
:1017F000020646EA06464FEA164646EA0106BCBF1E
:1018000046EA0646360C4FF000034FF000024FF058
:10181000000194E72DE9804C9A46934670B491E814
:10182000380007C831EA400C48BF34EA430C03D5FE
:10183000FFF7E6FDFFF780FFF0BCBDE8008C2DE967
:10184000804C9A46934670B491E8380007C810F06F
:10185000804F08BF13F0804F03D100F005F8FFF769
:101860006BFFF0BCBDE8008C20F07F4780EA0300EE
:1018700023F07F4C07EB0C03A3F57C5300F00040F2
:10188000A3F1FE0392F0000F00F0B38095F0000F7B
:1018900000F077802DE901494FEA11404FEA1446E4
:1018A00021EA004800FB06FC24EA064708FB06F68E
:1018B00007FB08F800FB07F718EB06484CEB164C43
:1018C0004FEA124B18EB07484FEA15464CEB17400E
:1018D00022EA0B4E0BFB06FC25EA06470EFB06F63A
:1018E00007FB0EFE0BFB07F71EEB064E4CEB164CF0
:1018F0004FF000061EEB074E4CEB174B18EB0B0896
:1019000040F1000018EB0E0B58EB000840F100000E
:101910008F1A4FF000013CBFC943661B14BFB5EBE3
:10192000040C00213CBFC943F61B4FEA17444EEAA2
:101930008E0E27EA04454FEA1C4704FB07622CEA97
:10194000074C05FB07F70CFB05F604FB0CFC16EB3C
:10195000074642EB174216EB0C4642EB1C421BEBD0
:10196000060658EB0202414146EA9E0601D5BDE853
:101970000189B619524141EB0101A3F10103BDE810
:1019800001894FEA14454FEA114724EA054621EA46
:10199000074C05FB07F406FB07F70CFB06F105FBFC
:1019A0000CFC11EB074144EB17444FEA124711EBD3
:1019B0000C4144EB1C4422EA074C05FB07F206FBF2
:1019C00007F70CFB06F605FB0CFC16EB074642EB93
:1019D000174216EB0C4642EB1C456A1854F1000105
:1019E00048BF7047B619524141EB0101A3F1010311
:1019F000704795F0000F37D04FEA11424FEA144775
:101A000021EA024624EA074C02FB07F106FB07F72E
:101A10000CFB06F402FB0CFC14EB074441EB1741F2
:101A20004FEA154714EB0C4441EB1C4125EA074CE7
:101A300002FB07F506FB07F70CFB06F602FB0CFCA6
:101A400016EB074645EB174516EB0C4645EB1C42DB
:101A5000121951F1000148BF7047B619524141EBCC
:101A60000101A3F1010370474FEA14454FEA114702
:101A700024EA054621EA074C05FB07F106FB07F7B8
:101A80000CFB06F24FF0000605FB0CFC12EB0742C4
:101A900041EB174112EB0C4251EB1C4148BF704720
:101AA000921841EB0101A3F10103704710B5A2B0F8
:101AB000802200212E48FEF7EDFD2EA22FA12C48FA
:101AC000FEF73CFC2A48FEF74FFD364908608022AD
:101AD00000213548FEF7DEFD34A326A236A13248A8
:101AE000FEF72CFC3048FEF73FFD354908608022A8
:101AF000002102A8FEF7CEFD2CA01EA31DA231A13D
:101B0000009002A8FEF71AFC02A8FEF72DFD04467D
:101B1000202035A33D4A2146009002A802F0F2F8A9
:101B20003A48FEF721FD3A490860802200213948F1
:101B3000FEF7B0FD1DA238A13648FEF7FFFB40F2CC
:101B40005B703F4908600846324902683DA002F0D8
:101B500051F8074940A002F04DF8134942A002F0A5
:101B600049F82A4944A002F045F822B010BD00000F
:101B7000041B0020593030320000000025737C73B4
:101B800065637572656D6F64653D332C7369676E4F
:101B90006D6574686F643D686D6163736861317C05
:101BA000000000002C000020841B00206131514601
:101BB000654A48536F417000257326257300000065
:101BC00030000020636C69656E7449642573646538
:101BD000766963654E616D65257370726F647563B8
:101BE000744B65792573000037666232663138635D
:101BF0003466393539343430313864383132376607
:101C0000343633383335643700000000041C0020BC
:101C100034000020841C002025732E696F742D6110
:101C2000732D6D7174742E636E2D7368616E6768A9
:101C300061692E616C6979756E63732E636F6D00D7
:101C400038000020B7FE20CEF120C6F7A3BA2573D6
:101C50003A25640D0A000000BFCDBBA7B6CB4944AE
:101C6000A3BA25730D0A0000D3C320BBA720C3FB72
:101C7000A3BA25730D0A0000C3DC20202020C2EB8C
:101C8000A3BA25730D0A000000BFFEE770B5054634
:101C90000C462246294615480068801CFEF783FC46
:101CA0002046E11704EB1161090A104A126811700D
:101CB000E11704EB11610912A4EB01210B4A126830
:101CC0005170002109480268A01C1154074800689F
:101CD00000F59670054908600846006804490968DF
:101CE000884202D103480149086070BD20000020ED
:101CF00028000020281500207047F0B50A46002172
:101D00000023002400BF3DE0012505FA01F315681A
:101D100005EA03049C4234D105684F000326BE4007
:101D2000B543056015794E00B5400668354305603A
:101D30001579012D02D01579022D16D185684F0035
:101D40000326BE40B543856055794E00B540866890
:101D500035438560456801268E40B543456045683A
:101D600096798E40B6B235434560C5684F0003266C
:101D7000BE40B543C560D5794E00B540C668354311
:101D8000C560491C1029BFD3F0BDF0B50023002465
:101D90004D07ED0E02FA05F3CE1000F1200555F8BF
:101DA00026504E07F70E0F26BE40B543CF1000F168
:101DB000200646F82750CE1000F1200555F8265091
:101DC00045EA0304CE1000F1200545F82640F0BD99
:101DD0000246002053690B400BB1012000E00020B7
:101DE000704741837047018370470AB1018300E067
:101DF0004183704700BFFEE71CB50121084600F093
:101E0000B7FB0120009000208DF8040002208DF81F
:101E1000070003208DF8050069460648FFF76DFFAF
:101E20000220009001208DF8070069460148FFF765
:101E300064FF1CBD0000024010B5CCB002210C486C
:101E4000FFF7C6FF20B10B4901A8FEF777FA03E0C0
:101E5000094901A8FEF772FA01A8FEF785FB0446BE
:101E6000224601A905A000F075FA4CB010BD000093
:101E700000040240245A00088C5A00082F7379731A
:101E80002F61315146654A48536F41702F593030A8
:101E9000322F7468696E672F6576656E742F707265
:101EA0006F70657274792F706F73740010B50221B2
:101EB0000748FFF798FF01210548FFF794FF20210D
:101EC0000448FFF790FF10210248FFF78CFF10BD78
:101ED00000040240000802401CB50121022000F06D
:101EE00047FB0121042000F043FB032000908DF804
:101EF000050001208DF8040000208DF80600012067
:101F00008DF8070069460C48FFF7F7FE3020009077
:101F100003208DF8050001208DF8040000208DF8C5
:101F2000060001208DF8070069460448FFF7E5FE2A
:101F3000FFF7BCFF1CBD0000000402400008024087
:101F400010B516481649086008460068154908602B
:101F50001548164908601648164908600846006882
:101F60001549086015481649086016481649086062
:101F7000084600681549086015481649086000F0D1
:101F80004BF8002114A000F05BFA00201F490870F4
:101F90001F4908701F49087010BD0000700900201B
:101FA000080000200C000020200E0020100000205F
:101FB0004C0F00201400002018000020FC1300200B
:101FC0001C000020281500202000002024000020F4
:101FD000D8190020280000202F7379732F61315108
:101FE00046654A48536F41702F593030322F74681C
:101FF000696E672F736572766963652F70726F7093
:10200000657274792F736574000000004B00002026
:102010004A0000204800002070B501207A4908607D
:102020000A207A4908607A480068001D79490968E1
:102030000844801C78490968084478490860734856
:1020400000680968441810207549087000BF2046D0
:10205000E11704EB5161C911A4EBC115E11704EBC1
:102060005161CC11002C01DD45F080056C48664AB9
:102070001268855464480068401C63490860002C5D
:10208000E5DC0021664A60480068115404215E487E
:102090000068401C11544D215B480068801C11549D
:1020A000512159480068C01C1154542156480068F9
:1020B000001D115454480068401D11540421524819
:1020C0000068801D1154C2214F480068C01D115482
:1020D00000214D4800680830115464214A480068C6
:1020E000093011544A490868C11700EB1161C1F366
:1020F00007224B4B444909680A315A54444908683D
:10210000C11700EB11610912A0EB0121CAB23E49CF
:1021100009680B315A541A463B4909680C3150186A
:102120003B490A683F49FEF73EFA3A490868C11739
:1021300000EB1161C1F30722334909680C31344BBC
:102140001B681944364B5A5432490868C11700EBD2
:1021500011610912A0EB0121CAB22B4909680D31A6
:102160002B4B1B6819442E4B5A54274909680E31D2
:10217000274A126811441A46881826490A682A49CB
:10218000FEF711FA24490868C11700EB1161C1F389
:1021900007221D4909680E311D4B1B6819441D4B50
:1021A0001B6819441E4B5A541B490868C11700EBA1
:1021B00011610912A0EB0121CAB2134909680F315C
:1021C000134B1B681944134B1B681944144B5A5486
:1021D0000D49096810310E4A126811440D4A1268FF
:1021E00011441A4688180C490A681049FEF7DBF9B1
:1021F00005480068054A12681044084A12688118A8
:10220000074800F09FFD70BD3C000020400000200A
:102210002C0000203000002034000020440000206A
:10222000041D0020041B0020841B0020041C00202F
:102230002DE9F04FD1B0804698F8011098F80000D1
:1022400001EB0020509008F102070020814605466E
:102250000646834601244FF0010A00BF0BF1010B33
:1022600000BF281917F8009009F07F0000FB0A66EC
:102270004FEACA1A641C09F080000028F1D1301915
:10228000054431195098401A50900124A246002666
:1022900050980028E2D1594620A001F0ABFC002064
:1022A0000546064600BF00BF4C9030E000BF28192D
:1022B00017F8009009F07F0000FB0A664FEACA1A7F
:1022C000641C09F080000028F1D1601C2844395CAE
:1022D0006019385C01EB0020801C4F904F98301A39
:1022E0004E9029194F9808444D904D98391801A8DF
:1022F0004E9AFEF758F901A84E99FFF7C7FC30191E
:1023000005440124A24600264C98401C4C904C9851
:102310005845CBDB51B0BDE8F08F0000B1BEB4CE64
:10232000BDD3CAD5C1CB2564B8F6CDC6CBCDCAFDC9
:10233000BEDD0D0A0000000010B5C0200449087081
:10234000002048700221024800F0FCFC10BD000093
:10235000041D00202DE9F047054688461646012059
:10236000334908602846FEF7FFF8801C31490860B1
:1023700031480660084600682F4909684418302033
:102380002E49087000BF2046E11704EB5161C911C6
:10239000A4EBC117E11704EB5161CC11002C01DD56
:1023A00047F080072548224A126887542048006871
:1023B000401C1F490860002CE5DC2846FEF7D4F8D5
:1023C000C0F307211D4A1A48006811542846FEF739
:1023D000CBF8C1B2194A16480068401C115428466F
:1023E000FEF7C2F88146154A11490968891C501840
:1023F0004A462946FEF7D7F82846FEF7B5F80C49B5
:102400000968891C08440D4900EB01093246414620
:102410004846FEF7C8F806480068064A12681044A5
:10242000054A12688118054800F08CFCBDE8F08769
:102430003C0000204000002044000020041D00203B
:1024400070B504460D4602201F4908601F49086008
:102450002046FEF789F8C01C1D49086082201D49EE
:1024600008701A4800781A490978084419494870D0
:10247000002088700120C8702046FEF775F8000A19
:10248000144908712046FEF76FF81249487120463A
:10249000FEF76AF80646324621460E48801DFEF7D2
:1024A00082F82046FEF760F8801D0A490D54064860
:1024B0000068064A12681044054A126881180548E7
:1024C00000F040FC70BD00003C00002040000020F7
:1024D00044000020041D002000BFFEE770470000FC
:1024E00070B5002100230F22C4781CB3174C246858
:1024F00004F4E064C4F5E064C4F30721C1F104040A
:10250000E3B20A4144789C40E1B28478144021430C
:102510000C07210E0E4C05786155047804F01F0558
:102520000124AC4005786D11AD0005F1E025C5F83A
:10253000004109E0047804F01F050124AC40054D7A
:102540000678761145F8264070BD00000CED00E0DD
:1025500000E400E080E100E002490143024A11602A
:10256000704700000000FA050CED00E07047000025
:1025700029B1064A12680243044B1A6004E0034A78
:1025800012688243014B1A607047000030380240E5
:1025900029B1064A12680243044B1A6004E0034A58
:1025A00012688243014B1A607047000040380240B5
:1025B00029B1064A12680243044B1A6004E0034A38
:1025C00012688243014B1A607047000020380240B5
:1025D00029B1064A12680243044B1A6004E0034A18
:1025E00012688243014B1A60704700004438024071
:1025F00029B1064A12680243044B1A6004E0034AF8
:1026000012688243014B1A60704700002438024070
:10261000F0B5002100220024022500260223324FBB
:102620003F6807F00C0121B1042905D0082937D1F2
:1026300005E02E4F076036E02D4F076033E02A4F4C
:102640003F1F3F68C7F38056274F3F1F3F6807F083
:102650003F036EB1264FB7FBF3F7DFF88CC0ACF148
:10266000040CDCF800C0CCF3881C07FB0CF40CE075
:102670001E4FB7FBF3F7DFF870C0ACF1040CDCF8C9
:1026800000C0CCF3881C07FB0CF4174F3F1F3F68BA
:10269000C7F301477F1C7D00B4FBF5F7076002E03C
:1026A000124F076000BF00BF0F4F3F6807F0F001F7
:1026B0000909104F7A5C0768D74047600A4F3F68A6
:1026C00007F4E051890A0B4F7A5C4768D74087606E
:1026D000054F3F6807F46041490B064F7A5C476835
:1026E000D740C760F0BD0000083802400024F40065
:1026F00040787D015C000020704700000CB5002090
:10270000019000903448006840F4803032490860FD
:1027100000BF3148006800F4003000900198401C70
:102720000190009818B90198B0F5A04FF1D12A484E
:10273000006800F4003010B10120009001E000209A
:1027400000900098012846D123484030006840F0AE
:1027500080502149403108602048006840F44040E2
:102760001E4908601C48083000681B490831086091
:102770000846006840F4004008600846006840F4DD
:10278000A05008601648091F0860081F006840F044
:102790008070091F086000BF0F48006800F00070DB
:1027A0000028F9D040F205700E4908600A48083048
:1027B000006820F0030008490831086008460068F6
:1027C00040F00200086000BF03480830006800F0D5
:1027D0000C000828F8D10CBD003802400070004001
:1027E00019544007003C0240042808D14FF0E02172
:1027F000096941F004014FF0E022116107E04FF058
:10280000E021096921F004014FF0E02211617047D5
:102810007047000010B51548006840F47000134977
:1028200008601348006840F001001149086000206A
:102830000F49083108600E4800680E4908400C49ED
:1028400008600D48091D0860081F006820F48020FA
:10285000091F0860002006490C310860FFF74EFF91
:102860004FF0006001498039086010BD88ED00E03C
:1028700000380240FFFFF6FE103000241FB54FF471
:10288000A060FFF769FE01210220FFF781FE1848D2
:1028900000F032F944F61F60029041F61F40ADF897
:1028A00004000020ADF80600ADF80C0001A91048A6
:1028B00000F006FA01210E4800F00EF9012211463F
:1028C0000B4800F0F2F90121094800F008F91D2039
:1028D0008DF8000001208DF8010000208DF8020025
:1028E00001208DF803006846FFF7FAFD1FBD0000C8
:1028F000000400401FB54FF4A060FFF72DFE01213A
:102900000220FFF745FE174800F0F6F84EF65F206C
:10291000029048F69F40ADF804000020ADF8060094
:10292000ADF80C0001A90F4800F0CAF901210D48CB
:1029300000F0D2F8012211460A4800F0B6F9012150
:10294000084800F0CCF81D208DF8000002208DF81A
:10295000010001208DF802008DF803006846FFF7A2
:10296000BFFD1FBD0004004010B50121164800F056
:102970008BF938B315480078062819D2DFE800F043
:1029800003060B0C0D10FFF7D7FC11E0FFF776FFE5
:10299000FFF7D2FC0CE000BF00BFFFF7CDFC07E063
:1029A00000200B4908700021074800F098F800BF8C
:1029B00000BF06480078401C044908700121024805
:1029C00000F08AF810BD000000040040480000201C
:1029D0004900002010B501211D4800F055F90028DC
:1029E00034D01C481C4902681C480068801CFDF754
:1029F000DAFD18480088000A184909680870154867
:102A000000781649096848701448006800F5967007
:102A1000124908600846006811490968884202D1D5
:102A200010480E49086000200A49086000210E483D
:102A300000F044F90021064800F051F80021044854
:102A400000F03CF90121024800F046F810BD0000FA
:102A50000008004004000020700100200800002051
:102A60001000002070090020000400407FB50546DA
:102A70000C464FF4A060FFF76FFD01210420FFF723
:102A800087FD0295ADF804400020ADF80600ADF8D2
:102A90000C0001A90F4800F013F901210D4800F0C6
:102AA0001BF8012211460B4800F0FFF800210948ED
:102AB00000F015F81E208DF8000001208DF80100AF
:102AC00000208DF8020001208DF803006846FFF712
:102AD00007FD7FBD00080040CA430282704721B154
:102AE000028842F00102028004E002884FF6FE7381
:102AF0001A4002807047000010B5044655488442D1
:102B000008D101210846FFF773FD00210120FFF7DE
:102B10006FFD9DE0B4F1804F08D101210846FFF719
:102B200047FD00210120FFF743FD91E04A48844220
:102B300008D101210220FFF73BFD00210220FFF711
:102B400037FD85E04548844208D101210420FFF784
:102B50002FFD00210420FFF72BFD79E0404884423F
:102B600008D101210820FFF723FD00210820FFF7ED
:102B70001FFD6DE03B48844208D101211020FFF782
:102B800017FD00211020FFF713FD61E03648844255
:102B900008D101212020FFF70BFD00212020FFF7A5
:102BA00007FD55E03148844208D101210220FFF79A
:102BB0001FFD00210220FFF71BFD49E02C48844245
:102BC00009D101210804FFF713FD00214FF48030E3
:102BD000FFF70EFD3CE02748844209D1012148045B
:102BE000FFF706FD00214FF40030FFF701FD2FE055
:102BF0002148844209D101218804FFF7F9FC002112
:102C00004FF48020FFF7F4FC22E01C48844208D1F6
:102C100001214020FFF7CCFC00214020FFF7C8FC39
:102C200016E01748844208D101218020FFF7C0FC3C
:102C300000218020FFF7BCFC0AE01248844207D143
:102C400001218015FFF7B4FC0021A015FFF7B0FCAF
:102C500010BD0000000001400004004000080040DA
:102C6000000C00400010004000140040000401402F
:102C7000004001400044014000480140001800406D
:102C8000001C00400020004030B502460020002318
:102C90000024158A05EA0103958905EA010413B1A8
:102CA0000CB1012000E0002030BD1AB183890B4334
:102CB000838102E083898B4383817047416270473F
:102CC00000220288184B98420ED0184B98420BD025
:102CD000B0F1804F08D0164B984205D0154B984262
:102CE00002D0154B984204D14FF68F731A404B888F
:102CF0001A43124B984207D0114B984204D04FF61A
:102D0000FF431A400B891A4302804B68C3620B8849
:102D10000385054B984202D0044B984201D18B7A2F
:102D200003860123838270470000014000040140B4
:102D30000004004000080040000C0040001000406B
:102D40000014004070B505460C462246294613483B
:102D50000068801CFDF727FC2046E11704EB116199
:102D6000090A0E4A12681170E11704EB1161091289
:102D7000A4EB0121094A126851700848006800F567
:102D80009670064908600846006805490968884247
:102D900002D104480149086070BD00001400002001
:102DA0001C0000204C0F002010B5002440F22551DB
:102DB0001D4800F00BF910B31B4800F0C1F9C4B274
:102DC0001A48008800F40040C8B91848008800F488
:102DD000804060B10A2C03D000201449088022E012
:102DE0001248008840F40040104908801BE00D2C78
:102DF00006D10E48008840F480400C49088012E05B
:102E00000A480088C0F30D0009490C54074800889F
:102E1000401C0649088008460088C0F30D00C728FA
:102E200001DD0020088010BD00100140540000208A
:102E3000301E002010B540F22551184800F0C6F8A9
:102E400058B31748007880B91448001D008820B393
:102E50001248001D00881349134A1268885412480A
:102E60000068401C1049086017E00C48001D0088ED
:102E70000C490D4A126888540B48006820B901219A
:102E80000A48FFF72CFE03E000210848FFF716FF71
:102E900005480068401C0449086010BD004400401B
:102EA00049000020700100200400002000080040BC
:102EB00001F40072B2F5007F00D100BFCA43028066
:102EC000704721B1828942F40052828104E08289F4
:102ED0004DF6FF731A4082817047000010B504461A
:102EE0003248844208D101211020FFF781FB0021E4
:102EF0001020FFF77DFB57E02D48844209D10121C6
:102F00004804FFF755FB00214FF40030FFF750FB5A
:102F10004AE02848844209D101218804FFF748FB90
:102F200000214FF48020FFF743FB3DE0224884421C
:102F300009D10121C804FFF73BFB00214FF4002019
:102F4000FFF736FB30E01D48844209D10121080516
:102F5000FFF72EFB00214FF48010FFF729FB23E041
:102F60001748844208D101212020FFF741FB0021AE
:102F70002020FFF73DFB17E01248844209D10121D0
:102F80008807FFF715FB00214FF08040FFF710FB8B
:102F90000AE00D48844207D101214005FFF708FBF4
:102FA00000216005FFF704FB10BD00000010014088
:102FB0000044004000480040004C004000500040E9
:102FC0000014014000780040007C004070B50246CB
:102FD000002400230025002040F66A16B14200D1EB
:102FE00000BFC1F3421501F01F03012606FA03F3E7
:102FF000012D02D19689334006E0022D02D1168AB6
:10300000334001E0968A33400C12012606FA04F49C
:103010001688344013B10CB1012000E0002070BDCF
:10302000F0B50346002400260025002040F66A176C
:10303000B94200D100BF1846C1F3421401F01F0687
:10304000012707FA06F5012C01D10C3004E0022C0F
:1030500001D1103000E014301AB107682F43076027
:1030600002E00768AF430760F0BD00002DE9FF47AD
:1030700005460E460024A14600BFA046B08900B117
:1030800000BF2C8A24F44054F08804432C82AC897D
:1030900041F20C608443B088318908437189084348
:1030A0000443AC81AC8A24F44074B0890443AC82FC
:1030B0006846FFF7ADFA2048854202D01F48854296
:1030C00002D1DDF80C9001E0DDF80890A88900F449
:1030D000004040B109EBC90000EB0910316849001C
:1030E000B0FBF1F707E009EBC90000EB091031680C
:1030F0008900B0FBF1F76420B7FBF0F00401200970
:10310000642101FB1078A88900F4004040B132200E
:1031100000EBC800B0FBF1F000F00700044308E04A
:10312000322000EB08106421B0FBF1F000F00F003A
:1031300004432C81BDE8FF870010014000140140CA
:1031400001468888C0F30800704700BFFEE7000012
:1031500010B586B0044601211020FFF739FA01218D
:103160000846FFF705FA1B48FFF7B8FE07220921BA
:103170001948FEF70AFE07220A211748FEF705FE46
:103180004FF4C060049003208DF8150002208DF8E4
:10319000140000208DF8160001208DF8170004A9F6
:1031A0000D48FEF7AAFD00940020ADF80400ADF82C
:1031B0000600ADF80800ADF80C000820ADF80A00D4
:1031C00069460448FFF752FF01210248FFF779FEE4
:1031D00006B010BD001001400000024010B588B0DC
:1031E00004464FF4A060FFF7B7F901214804FFF748
:1031F000CFF901210846FFF7BBF92748FFF76EFE1C
:10320000072202212548FEF7C0FD0722032123489B
:10321000FEF7BBFD0C20069003208DF81D00022058
:103220008DF81C0000208DF81E0001208DF81F0075
:1032300006A91A48FEF761FD02940020ADF80C00C3
:10324000ADF80E00ADF81000ADF814000C20ADF88C
:10325000120002A91048FFF709FF20210E48FFF7CE
:1032600027FE012240F225510B48FFF7D9FE262008
:103270008DF8040000208DF805008DF8060001206F
:103280008DF8070001A8FFF72BF901210248FFF78D
:1032900018FE08B010BD00000044004000000240CD
:1032A00003B401984100009850EAC12018BF0420DF
:1032B0004A0D18BF40F0010040F2FF72B2EB515FBF
:1032C00008BF40F00200012808BF052002B0704787
:1032D00030380A2801D2012070470020704701468B
:1032E00000BF704710B59B480078012872D19A48FA
:1032F00000689A49096888422AD09748006880780F
:1033000010280CD0944800688078822803D1944813
:103310000078012803D093480078012818D18E48FE
:103320000068817890A000F065FC8B48006800F090
:103330008FFC8948006800F5967087490860084648
:1033400000688D490968884202D18C48824908602A
:103350008B4800688B490968884277D08AA000F0C2
:1033600049FC87480068807820283CD18448006860
:10337000407906282FD2DFE800F0030A11181F2633
:1033800084A000F037FC0120754908702AE086A06F
:1033900000F030FC00206F49087023E08DA000F0A1
:1033A00029FC00206B4908701CE096A000F022FC6C
:1033B00000206849087015E09CA000F01BFC00206C
:1033C000644908700EE0A4A000F014FC00206149DC
:1033D000087007E097E0A8A000F00CFC00205D4911
:1033E000087000BF49E066480068807890281DD1C9
:1033F00063480068807910B101280FD100E000BF58
:10340000A6A000F0F7FB0120564908700020A6494D
:103410000870FFF76FFAFEF70FFD06E0A3A000F0BB
:10342000E9FB00204B49087000BF26E054480068C3
:103430008078D02815D1A3A000F0DCFB9A48007852
:10344000012804D100209849087016E024E096482D
:103450000078012811DD002093490870FFF74AFA2F
:103460000BE0474800688078302806D199A000F02A
:10347000C1FB43480068FEF7DBFE4148006800F5E9
:1034800096703F4908600846006897490968884275
:1034900002D196483A4908609548006895490968FC
:1034A000884256D092480168891C93A000F0A2FB84
:1034B00094A18F480068801CFDF744F830B10221C8
:1034C0009748FEF78EFCFEF7B7FC0CE095A1884804
:1034D0000068801CFDF736F828B102219048FEF7FD
:1034E00082FCFEF7A9FC8248006800F596708049CE
:1034F00008600846006892490968884229D19148C5
:103500007B49086025E090A000F074FB00219348FF
:10351000FFF7E5FA00219248FFF7E1FA0020914910
:1035200008604FF480619048FDF7BCF800F088F91E
:1035300078B98EA000F05EFB0120064908700020DB
:10354000884908604FF480618748FDF7ABF8FEF7C3
:10355000F7FC10BD490000201800002014000020D6
:103560004A0000204B000020B7A2CBCDCAFDBEDD33
:103570003A307825780D0A001C0000204C0F0020FE
:103580000C00002008000020BDD3CAD5B5BDCAFD7F
:10359000BEDD3A00434F4E4E454354B1A8CEC4B3AE
:1035A000C9B9A60D0A000000C1ACBDD3D2D1BEDCA2
:1035B000BEF8A3ACB2BBD6A7B3D6B5C4D0ADD2E9E2
:1035C000B0E6B1BEA3ACD7BCB1B8D6D8C6F40D0A2C
:1035D00000000000C1ACBDD3D2D1BEDCBEF8A3ACAC
:1035E000B2BBBACFB8F1B5C4BFCDBBA7B6CBB1EAB9
:1035F000CAB6B7FBA3ACD7BCB1B8D6D8C6F40D0ACF
:1036000000000000C1ACBDD3D2D1BEDCBEF8A3AC7B
:10361000B7FECEF1B6CBB2BBBFC9D3C3A3ACD7BC48
:10362000B1B8D6D8C6F40D0A00000000C1ACBDD3B5
:10363000D2D1BEDCBEF8A3ACCEDED0A7B5C4D3C316
:10364000BBA7C3FBBBF2C3DCC2EBA3ACD7BCB1B816
:10365000D6D8C6F40D0A0000C1ACBDD3D2D1BEDCB1
:10366000BEF8A3ACCEB4CADAC8A8A3ACD7BCB1B874
:10367000D6D8C6F40D0A0000C1ACBDD3D2D1BEDC91
:10368000BEF8A3ACCEB4D6AAD7B4CCACA3ACD7BC4E
:10369000B1B8D6D8C6F40D0A00000000B6A9D4C44B
:1036A000B3C9B9A60D0A000048000020B6A9D4C4C9
:1036B000CAA7B0DCA3ACD7BCB1B8D6D8C6F40D0A43
:1036C0000000000050494E47B1A8CEC4BBD8B8B4E2
:1036D0000D0A0000B7FECEF1C6F7B5C8BCB630CDB6
:1036E000C6CBCD0D0A00000010000020700900209C
:1036F0002400002020000020C3FCC1EE3A25730DF9
:103700000A00000022706172616D73223A7B2250C0
:103710006F776572537769746368223A317D000070
:103720000004024022706172616D73223A7B225064
:103730006F776572537769746368223A307D000051
:103740002800002028150020D0E8D2AAC1ACBDD3A3
:10375000B7FECEF1C6F70D0A0000000000080040D9
:10376000000400400400002070010020BDA8C1A298
:10377000544350C1ACBDD3B3C9B9A60D0A00000073
:1037800010B504466FF00400FFF72EF8E11704EBC4
:103790005171C1F3C701074A11701046007800EB60
:1037A0004001C1EBC0104FF6FF7101EAC0000249B1
:1037B000088010BD4C0000204E00002070B504466B
:1037C0004FF4077094FBF0F0C6B24FF4077094FB0F
:1037D000F0F100FB114085B205E04FF4077000F0F6
:1037E00009F8701EC6B2002EF7D115B1284600F0B8
:1037F00001F870BD0146114A12884A434FF0E02398
:103800005A6100229A611A46126942F001021A6155
:1038100000BF4FF0E022106900F001021AB100F47D
:103820008032002AF5D04FF0E022126922F0010226
:103830004FF0E0231A6100229A6170474E00002089
:1038400010B526A000F0D6F9322000F06FF920B1B3
:1038500028A000F0CFF9012010BD2EA000F0CAF979
:1038600032A000F0C7F9322000F00EF920B133A0E9
:1038700000F0C0F90220EFE736A000F0BBF917A076
:1038800000F0B8F9322000F051F920B119A000F091
:10389000B1F90320E0E71FA000F0ACF930A000F080
:1038A000A9F9322000F0A4F820B132A000F0A2F96A
:1038B0000420D1E736A000F09DF93AA000F09AF973
:1038C000322000F0E1F820B13EA000F093F905208D
:1038D000C2E743A000F08EF90020BDE7D7BCB1B825
:1038E000BDF8C8EB4154D6B8C1EEC4A3CABD0D0A99
:1038F00000000000BDF8C8EB4154D6B8C1EEC4A327
:10390000CABDCAA7B0DCA3ACD7BCB1B8D6D8C6F480
:103910000D0A0000B3C9B9A6BDF8C8EB4154D6B82A
:10392000C1EEC4A3CABD0D0A00000000D7BCB1B8E7
:10393000B8B4CEBBC4A3BFE90D0A0000B8B4CEBB77
:10394000CAA7B0DCA3ACD7BCB1B8D6D8C6F40D0AB0
:1039500000000000B8B4CEBBB3C9B9A60D0A000080
:10396000D7BCB1B8C9E8D6C3544350C1ACBDD30D20
:103970000A000000C9E8D6C3544350C1ACBDD3CA45
:10398000A7B0DCA3ACD7BCB1B8D6D8C6F40D0A003A
:10399000C9E8D6C3544350C1ACBDD3B3C9B9A60D11
:1039A0000A000000D7BCB1B8D6D8C6F4C4A3BFE99A
:1039B000A3ACBDF8C8EBCDB8B4ABC4A3CABD0D0A67
:1039C00000000000C9E8D6C3CDB8B4ABCAA7B0DCCC
:1039D000A3ACD7BCB1B8D6D8C6F40D0A000000001D
:1039E000C9E8D6C3CDB8B4ABB3C9B9A60D0A0000B7
:1039F00070B5044600250020144908604FF480612A
:103A00001348FCF74FFE13481349026813A000F057
:103A10003FF90CE06420FFF7D1FE16A10C48FCF73B
:103A200091FD00B107E0214615A000F0E3F8201E4B
:103A3000A4F10104EED100BF12A000F0DBF8002CCD
:103A400001DC012070BD0020FCE700000400002024
:103A50007001002038000020841C002041542B53AA
:103A60004F434B413D5443502C25732C25640D0A84
:103A700000000000616C6979756E637300000000DE
:103A8000256420000D0A000010B504464FF4FA70BA
:103A9000FFF794FE0FA000F0FBF80DE04FF47A70F2
:103AA000FFF78CFE0DA10F48FCF74CFD00B107E0BD
:103AB00021460DA000F09EF8201EA4F10104EDD1D6
:103AC00000BF05A000F096F8002C01DC012010BD1D
:103AD0000020FCE741542B5A0D0A000047343035D2
:103AE0007466000070010020256420001CB50121CF
:103AF0000846FEF73DFD1020009003208DF80500DC
:103B000001208DF8040000208DF8060001208DF8BA
:103B1000070069460448FEF7F0F801221021024828
:103B2000FEF763F91CBD00000000024010B504461A
:103B30000020174908604FF480611648FCF7B2FD79
:103B400017E015A000F0A4F84FF47A70FFF736FEE6
:103B500012A000F09DF84FF47A70FFF72FFE10A12D
:103B60000C48FCF7EFFC00B107E021460DA000F087
:103B700041F8201EA4F10104E3D100BF0AA000F027
:103B800039F8002C01DC012010BD0020FCE700000A
:103B900004000020700100202B2B2B00610000008E
:103BA0006F6B0000256420000D0A0000A820FFF7BD
:103BB000E7FDFEF791F94FF41650FFF7C9FA4FF4FD
:103BC000E130FFF70BFB4FF4E1514FF4FA70FEF7D1
:103BD0004DFFFEF781F9FEF70FF9FFF787FFFDF7BD
:103BE00065FF49F64040FFF7E9FD01E0FFF77AFB8A
:103BF000FCE700000FB438B505A800901248009A01
:103C00000499FCF789FB002000900F48FCF7ACFCFE
:103C1000054600BF0D48008800F040000028F9D09C
:103C200000240BE00848005D0849888000BF074871
:103C3000008800F040000028F9D0641CAC42F1D3A9
:103C400038BC5DF814FB000070000020001001403B
:103C500000BF0E4A128802F04002002AF9D001216A
:103C60000CE04A1C825C094B1B1D1A8000BF074AEE
:103C7000128802F04002002AF9D0491C43780278E9
:103C800003EB02228A42ECDA704700000044004055
:103C90000FB438B505A800901248009A0499FCF7B3
:103CA0003BFB002000900F48FCF75EFC054600BF80
:103CB0000D48008800F040000028F9D000240CE0F6
:103CC0000848005D0849091D088000BF06480088B3
:103CD00000F040000028F9D0641CAC42F0D338BC9E
:103CE0005DF814FB7005002000440040014601F01F
:103CF0000F010A2902DA01F1300001E001F1570059
:103D000040B270472DE9F043BDB0064688461546DF
:103D10001F46DDF810910EB105B117B93DB0BDE8F1
:103D2000F083B9F1400F00DDF8E7402116A8FCF759
:103D3000DBFC402106A8FCF7D7FC4A46394616A80A
:103D4000FCF731FC4A46394606A8FCF72CFC002457
:103D50000CE016A8005D80F0360016A9085506A8EC
:103D6000005D80F05C0006A90855641C402CF0DB67
:103D700026A800F0AFF826A801F042FD402216A9BF
:103D800026A801F053FD4246314626A801F04EFD1B
:103D900001A926A800F02AF826A800F09BF826A87A
:103DA00001F02EFD402206A926A801F03FFD1422B5
:103DB00001A926A801F03AFD01A926A800F016F8ED
:103DC00000240FE001A9095D0811FFF78FFF05F836
:103DD000140001A9085DFFF789FF012101EB4401EF
:103DE0006854641C142CEDDB00BF97E72DE9FC47F9
:103DF00004460D462068400F616840EAC10620680D
:103E0000C700300E8DF80000300C8DF80100300A2C
:103E10008DF80200F0B28DF80300380E8DF8040022
:103E2000380C8DF80500380A8DF80600F8B28DF8C8
:103E30000700207800F03F08B8F1380F02D2C8F12F
:103E4000380001E0C8F1780081464A462049204602
:103E500001F0ECFC08226946204601F0E7FCA0686E
:103E6000000E2870A068000C68702089000AA870F5
:103E7000207AE870E068000E2871E068000C687134
:103E8000A089000AA871207BE8712069000E2872C1
:103E90002069000C6872208A000AA872207CE872EF
:103EA0006069000E28736069000C6873A08A000ABC
:103EB000A873207DE873A069000E2874A069000C27
:103EC0006874208B000AA874207EE874BDE8FC8723
:103ED0000E59000810B504465C212046FCF704FC8E
:103EE00010BD00002DE9F04390B007460E4696F84D
:103EF00000C04FEA0C6C96F801804CEA084C96F82A
:103F000002804CEA082C96F803804CEA080CCDF8A5
:103F100000C096F804C04FEA0C6C96F805804CEA95
:103F2000084C96F806804CEA082C96F807804CEA74
:103F3000080CCDF804C096F808C04FEA0C6C96F84F
:103F400009804CEA084C96F80A804CEA082C96F84E
:103F50000B804CEA080CCDF808C096F80CC04FEA6C
:103F60000C6C96F80D804CEA084C96F80E804CEAE2
:103F7000082C96F80F804CEA080CCDF80CC096F887
:103F800010C04FEA0C6C96F811804CEA084C96F879
:103F900012804CEA082C96F813804CEA080CCDF8F5
:103FA00010C096F814C04FEA0C6C96F815804CEAD5
:103FB000084C96F816804CEA082C96F817804CEAC4
:103FC000080CCDF814C096F818C04FEA0C6C96F89F
:103FD00019804CEA084C96F81A804CEA082C96F89E
:103FE0001B804CEA080CCDF818C096F81CC04FEAAC
:103FF0000C6C96F81D804CEA084C96F81E804CEA32
:10400000082C96F81F804CEA080CCDF81CC096F8D6
:1040100020C04FEA0C6C96F821804CEA084C96F8C8
:1040200022804CEA082C96F823804CEA080CCDF844
:1040300020C096F824C04FEA0C6C96F825804CEA14
:10404000084C96F826804CEA082C96F827804CEA13
:10405000080CCDF824C096F828C04FEA0C6C96F8EE
:1040600029804CEA084C96F82A804CEA082C96F8ED
:104070002B804CEA080CCDF828C096F82CC04FEAEB
:104080000C6C96F82D804CEA084C96F82E804CEA81
:10409000082C96F82F804CEA080CCDF82CC096F826
:1040A00030C04FEA0C6C96F831804CEA084C96F818
:1040B00032804CEA082C96F833804CEA080CCDF894
:1040C00030C096F834C04FEA0C6C96F835804CEA54
:1040D000084C96F836804CEA082C96F837804CEA63
:1040E000080CCDF834C096F838C04FEA0C6C96F83E
:1040F00039804CEA084C96F83A804CEA082C96F83D
:104100003B804CEA080CCDF838C096F83CC04FEA2A
:104110000C6C96F83D804CEA084C96F83E804CEAD0
:10412000082C96F83F804CEA080CCDF83CC0B868E3
:10413000F9683A697B69BC694FEA401C4CEAD0686F
:1041400082EA030C0CEA010C8CEA030CC444DFF88D
:10415000F88FC444DDF80080C44464444FEA817C95
:104160004CEA91014FEA441C4CEAD46881EA020C03
:104170000CEA000C8CEA020CC444DFF8CC8FC44477
:10418000DDF80480C44463444FEA807C4CEA90002C
:104190004FEA431C4CEAD36880EA010C0CEA040C99
:1041A0008CEA010CC444DFF8A08FC444DDF8088019
:1041B000C44462444FEA847C4CEA94044FEA421CB3
:1041C0004CEAD26884EA000C0CEA030C8CEA000C7E
:1041D000C444DFF8748FC444DDF80C80C4446144E7
:1041E0004FEA837C4CEA93034FEA411C4CEAD168C6
:1041F00083EA040C0CEA020C8CEA040CC444DFF8D9
:10420000488FC444DDF81080C44460444FEA827C87
:104210004CEA92024FEA401C4CEAD06882EA030C56
:104220000CEA010C8CEA030CC444DFF81C8FC44474
:10423000DDF81480C44464444FEA817C4CEA910167
:104240004FEA441C4CEAD46881EA020C0CEA000CE8
:104250008CEA020CC444DFF8F08EC444DDF8188008
:10426000C44463444FEA807C4CEA90004FEA431C0C
:104270004CEAD36880EA010C0CEA040C8CEA010CCD
:10428000C444DFF8C48EC444DDF81C80C4446244D6
:104290004FEA847C4CEA94044FEA421C4CEAD26810
:1042A00084EA000C0CEA030C8CEA000CC444DFF82E
:1042B000988EC444DDF82080C44461444FEA837C76
:1042C0004CEA93034FEA411C4CEAD16883EA040CA0
:1042D0000CEA020C8CEA040CC444DFF86C8EC44473
:1042E000DDF82480C44460444FEA827C4CEA9202A8
:1042F0004FEA401C4CEAD06882EA030C0CEA010C3D
:104300008CEA030CC444DFF8408EC444DDF82880F6
:10431000C44464444FEA817C4CEA91014FEA441C56
:104320004CEAD46881EA020C0CEA000C8CEA020C1C
:10433000C444DFF8148EC444DDF82C80C4446344C4
:104340004FEA807C4CEA90004FEA431C4CEAD36869
:1043500080EA010C0CEA040C8CEA010CC444DFF87E
:10436000E88DC444DDF83080C44462444FEA847C64
:104370004CEA94044FEA421C4CEAD26884EA000CEE
:104380000CEA030C8CEA000CC444DFF8BC8DC44476
:10439000DDF83480C44461444FEA837C4CEA9303E3
:1043A0004FEA411C4CEAD16883EA040C0CEA020C87
:1043B0008CEA040CC444DFF8908DC444DDF83880E6
:1043C000C44460444FEA827C4CEA92024FEA401CAB
:1043D0004CEAD06882EA030C0CEA010C8CEA030C6C
:1043E000C444DFF8648DC444DDF83C80C4446444B4
:1043F0004FEA817C4CEA9101DDF834C0DDF8208081
:104400008CEA080CDDF808808CEA080CDDF80080E6
:104410008CEA08054FEA450C4CEAD5784FEA441C73
:104420004CEAD46981EA020C0CEA000C8CEA020C1A
:10443000CC44DFF8149DCC44C4446344CDF80080E0
:104440004FEA807C4CEA9000DDF838C0DDF824802B
:104450008CEA080CDDF80C808CEA080CDDF804808E
:104460008CEA08054FEA450C4CEAD5784FEA431C24
:104470004CEAD36980EA010C0CEA040C8CEA010CCA
:10448000CC44DFF8C49CCC44C4446244CDF80480DE
:104490004FEA847C4CEA9404DDF83CC0DDF82880C7
:1044A0008CEA080CDDF810808CEA080CDDF8088036
:1044B0008CEA08054FEA450C4CEAD5784FEA421CD5
:1044C0004CEAD26984EA000C0CEA030C8CEA000C7A
:1044D000CC44DFF8749CCC44C4446144CDF80880DB
:1044E0004FEA837C4CEA9303DDF800C0DDF82C80B2
:1044F0008CEA080CDDF814808CEA080CDDF80C80DE
:104500008CEA08054FEA450C4CEAD5784FEA411C85
:104510004CEAD16983EA040C0CEA020C8CEA040C24
:10452000CC44DFF8249CCC44C4446044CDF80C80D7
:104530004FEA827C4CEA9202DDF804C0DDF830805C
:104540008CEA080CDDF818808CEA080CDDF8108085
:104550008CEA08054FEA450C4CEAD5784FEA401C36
:104560004CEAD06981EA020C8CEA030CCC44DFF8F7
:10457000DC9BCC44C4446444CDF810804FEA817C79
:104580004CEA9101DDF808C0DDF834808CEA080CB3
:10459000DDF81C808CEA080CDDF814808CEA080534
:1045A0004FEA450C4CEAD5784FEA441C4CEAD469F2
:1045B00080EA010C8CEA020CCC44DFF8909BCC44DE
:1045C000C4446344CDF814804FEA807C4CEA9000E8
:1045D000DDF80CC0DDF838808CEA080CDDF82080AE
:1045E0008CEA080CDDF818808CEA08054FEA450CC7
:1045F0004CEAD5784FEA431C4CEAD36984EA000CB4
:104600008CEA010CCC44DFF8449BCC44C4446244A3
:10461000CDF818804FEA847C4CEA9404DDF810C091
:10462000DDF83C808CEA080CDDF824808CEA080C6C
:10463000DDF81C808CEA08054FEA450C4CEAD57879
:104640004FEA421C4CEAD26983EA040C8CEA000C63
:10465000CC44DFF8F89ACC44C4446144CDF81C80C3
:104660004FEA837C4CEA9303DDF814C0DDF8008048
:104670008CEA080CDDF828808CEA080CDDF8208034
:104680008CEA08054FEA450C4CEAD5784FEA411C04
:104690004CEAD16982EA030C8CEA040CCC44DFF8C2
:1046A000AC9ACC44C4446044CDF820804FEA827C6C
:1046B0004CEA9202DDF818C0DDF804808CEA080CA0
:1046C000DDF82C808CEA080CDDF824808CEA0805E3
:1046D0004FEA450C4CEAD5784FEA401C4CEAD069C9
:1046E00081EA020C8CEA030CCC44DFF8609ACC44DB
:1046F000C4446444CDF824804FEA817C4CEA9101A3
:10470000DDF81CC0DDF808808CEA080CDDF830808C
:104710008CEA080CDDF828808CEA08054FEA450C85
:104720004CEAD5784FEA441C4CEAD46980EA010C83
:104730008CEA020CCC44DFF8149ACC44C4446344A1
:10474000CDF828804FEA807C4CEA9000DDF820C04C
:10475000DDF80C808CEA080CDDF834808CEA080C5B
:10476000DDF82C808CEA08054FEA450C4CEAD57838
:104770004FEA431C4CEAD36984EA000C8CEA010C32
:10478000CC44DFF8C899CC44C4446244CDF82C80B2
:104790004FEA847C4CEA9404DDF824C0DDF81080F4
:1047A0008CEA080CDDF838808CEA080CDDF83080E3
:1047B0008CEA08054FEA450C4CEAD5784FEA421CD2
:1047C0004CEAD26983EA040C8CEA000CCC44DFF892
:1047D0007C99CC44C4446144CDF830804FEA837C5A
:1047E0004CEA9303DDF828C0DDF814808CEA080C4D
:1047F000DDF83C808CEA080CDDF834808CEA080592
:104800004FEA450C4CEAD5784FEA411C4CEAD16995
:1048100082EA030C8CEA040CCC44DFF83099CC44D7
:10482000C4446044CDF834804FEA827C4CEA920262
:10483000DDF82CC0DDF818808CEA080CDDF800806B
:104840008CEA080CDDF838808CEA08054FEA450C44
:104850004CEAD5784FEA401C4CEAD06981EA020C58
:104860008CEA030CCC44DFF8E498CC44C4446444A0
:10487000CDF838804FEA817C4CEA9101DDF830C0F8
:10488000DDF81C808CEA080CDDF804808CEA080C4A
:10489000DDF83C808CEA08054FEA450C4CEAD578F7
:1048A0004FEA441C4CEAD46980EA010C8CEA020C01
:1048B000CC44DFF89898CC44C4446344CDF83C80A1
:1048C0004FEA807C4CEA9000DDF834C0DDF82080AF
:1048D0008CEA080CDDF808808CEA080CDDF8008012
:1048E0008CEA08054FEA450C4CEAD5784FEA431CA0
:1048F0004CEAD36984EA000C8CEA010CCC44DFF862
:104900004C98CC44C4446244CDF800804FEA847C87
:104910004CEA9404DDF838C0DDF824808CEA080CF9
:10492000DDF80C808CEA080CDDF804808CEA0805C0
:104930004FEA450C4CEAD5784FEA421C4CEAD26962
:1049400083EA040C8CEA000CCC44DFF80098CC44D9
:10495000C4446144CDF804804FEA837C4CEA93035D
:10496000DDF83CC0DDF828808CEA080CDDF810800A
:104970008CEA080CDDF808808CEA08054FEA450C43
:104980004CEAD5784FEA411C4CEAD16982EA030C23
:104990008CEA040CCC44DFF8B497CC44C4446044A3
:1049A000CDF808804FEA827C4CEA9202DDF800C024
:1049B000DDF82C808CEA080CDDF814808CEA080CF9
:1049C000DDF80C808CEA08054FEA450C4CEAD578F6
:1049D0004FEA401C4CEAD06981EA020C8CEA030CD5
:1049E000CC44DFF86897CC44C4446444CDF80C80D0
:1049F0004FEA817C4CEA9101DDF804C0DDF830809B
:104A00008CEA080CDDF818808CEA080CDDF81080C0
:104A10008CEA08054FEA450C4CEAD5784FEA441C6D
:104A20004CEAD46980EA010C8CEA020CCC44DFF831
:104A30001C97CC44C4446344CDF810804FEA807C7A
:104A40004CEA9000DDF808C0DDF834808CEA080CF0
:104A5000DDF81C808CEA080CDDF814808CEA08056F
:104A60004FEA450C4CEAD5784FEA431C4CEAD3692F
:104A700084EA000C8CEA010CCC44DFF8D096CC44DC
:104A8000C4446244CDF814804FEA847C4CEA940418
:104A9000DDF80CC0DDF838808CEA080CDDF82080E9
:104AA0008CEA080CDDF818808CEA08054FEA450C02
:104AB0004CEAD5784FEA421C4CEAD26983EA040CEE
:104AC0008CEA000CCC44DFF88496CC44C4446144A6
:104AD000CDF818804FEA837C4CEA9303DDF810C0D0
:104AE000DDF83C808CEA080CDDF824808CEA080CA8
:104AF000DDF81C808CEA08054FEA450C4CEAD578B5
:104B00004FEA411C4CEAD16982EA030C8CEA040C9E
:104B1000CC44DFF83896CC44C4446044CDF81C80C3
:104B20004FEA827C4CEA92024FEA401C4CEAD06980
:104B300001EA020C41EA020808EA03084CEA080C00
:104B4000CC44DFF80C86E044DDF814C0DDF80090BA
:104B50008CEA090CDDF828908CEA090CDDF820902D
:104B60008CEA09054FEA450C4CEAD57CCDF820C00B
:104B7000C44464444FEA817C4CEA91014FEA441CEE
:104B80004CEAD46900EA010C40EA010808EA02088C
:104B90004CEA080CCC44DFF8B885E044DDF818C0D6
:104BA000DDF804908CEA090CDDF82C908CEA090CF5
:104BB000DDF824908CEA09054FEA450C4CEAD57CD7
:104BC000CDF824C0C44463444FEA807C4CEA900092
:104BD0004FEA431C4CEAD36904EA000C44EA00089B
:104BE00008EA01084CEA080CCC44DFF86485E0448C
:104BF000DDF81CC0DDF808908CEA090CDDF8309077
:104C00008CEA090CDDF828908CEA09054FEA450C7E
:104C10004CEAD57CCDF828C0C44462444FEA847C79
:104C20004CEA94044FEA421C4CEAD26903EA040CB1
:104C300043EA040808EA00084CEA080CCC44DFF810
:104C40001085E044DDF820C0DDF80C908CEA090CFA
:104C5000DDF834908CEA090CDDF82C908CEA09051B
:104C60004FEA450C4CEAD57CCDF82CC0C4446144D5
:104C70004FEA837C4CEA93034FEA411C4CEAD1692A
:104C800002EA030C42EA030808EA04084CEA080CAA
:104C9000CC44DFF8BC84E044DDF824C0DDF810909B
:104CA0008CEA090CDDF838908CEA090CDDF83090BC
:104CB0008CEA09054FEA450C4CEAD57CCDF830C0AA
:104CC000C44460444FEA827C4CEA92024FEA401CA2
:104CD0004CEAD06901EA020C41EA020808EA03083A
:104CE0004CEA080CCC44DFF86884E044DDF828C0C6
:104CF000DDF814908CEA090CDDF83C908CEA090C84
:104D0000DDF834908CEA09054FEA450C4CEAD57C75
:104D1000CDF834C0C44464444FEA817C4CEA91012C
:104D20004FEA441C4CEAD46900EA010C40EA01084D
:104D300008EA02084CEA080CCC44DFF81484E0448A
:104D4000DDF82CC0DDF818908CEA090CDDF8009035
:104D50008CEA090CDDF838908CEA09054FEA450C1D
:104D60004CEAD57CCDF838C0C44463444FEA807C1B
:104D70004CEA90004FEA431C4CEAD36904EA000C69
:104D800044EA000808EA01084CEA080CCC44DFF8C1
:104D9000C083E044DDF830C0DDF81C908CEA090CDB
:104DA000DDF804908CEA090CDDF83C908CEA0905EA
:104DB0004FEA450C4CEAD57CCDF83CC0C444624473
:104DC0004FEA847C4CEA94044FEA421C4CEAD269D4
:104DD00003EA040C43EA040808EA00084CEA080C59
:104DE000CC44DFF86C83E044DDF834C0DDF820907B
:104DF0008CEA090CDDF808908CEA090CDDF80090CB
:104E00008CEA09054FEA450C4CEAD57CCDF800C088
:104E1000C44461444FEA837C4CEA93034FEA411C4B
:104E20004CEAD16902EA030C42EA030808EA0408E2
:104E30004CEA080CCC44DFF81883E044DDF838C0B5
:104E4000DDF824908CEA090CDDF80C908CEA090C52
:104E5000DDF804908CEA09054FEA450C4CEAD57C54
:104E6000CDF804C0C44460444FEA827C4CEA92020C
:104E70004FEA401C4CEAD06901EA020C41EA020800
:104E800008EA03084CEA080CCC44DFF8C482E0448A
:104E9000DDF83CC0DDF828908CEA090CDDF81090B4
:104EA0008CEA090CDDF808908CEA09054FEA450CFC
:104EB0004CEAD57CCDF808C0C44464444FEA817CF8
:104EC0004CEA91014FEA441C4CEAD46900EA010C17
:104ED00040EA010808EA02084CEA080CCC44DFF872
:104EE0007082E044DDF800C0DDF82C908CEA090CFB
:104EF000DDF814908CEA090CDDF80C908CEA0905B9
:104F00004FEA450C4CEAD57CCDF80CC0C444634450
:104F10004FEA807C4CEA90004FEA431C4CEAD3698C
:104F200004EA000C44EA000808EA01084CEA080C0C
:104F3000CC44DFF81C82E044DDF804C0DDF830909A
:104F40008CEA090CDDF818908CEA090CDDF8109059
:104F50008CEA09054FEA450C4CEAD57CCDF810C027
:104F6000C44462444FEA847C4CEA94044FEA421CF5
:104F70004CEAD26903EA040C43EA040808EA000890
:104F80004CEA080CCC44DFF8C881E044DDF808C0E6
:104F9000DDF834908CEA090CDDF81C908CEA090CE1
:104FA000DDF814908CEA09054FEA450C4CEAD57CF3
:104FB000CDF814C0C44461444FEA837C4CEA9303A7
:104FC0004FEA411C4CEAD16902EA030C42EA0308A9
:104FD00008EA04084CEA080CCC44DFF87481E04489
:104FE000DDF80CC0DDF838908CEA090CDDF8209073
:104FF0008CEA090CDDF818908CEA09054FEA450C9B
:105000004CEAD57CCDF818C0C44460444FEA827C99
:105010004CEA92024FEA401C4CEAD06901EA020CC9
:1050200041EA020808EA03084CEA080CCC44DFF81D
:105030002081E044DDF810C0DDF83C908CEA090CDA
:10504000DDF824908CEA090CDDF81C908CEA090547
:105050004FEA450C4CEAD57CCDF81CC0C4446444EE
:105060004FEA817C4CEA91014FEA441C4CEAD46936
:1050700000EA010C40EA010808EA02084CEA080CC0
:10508000CC44DFF8CC80E044DDF814C0DDF80090BB
:105090008CEA090CDDF828908CEA090CDDF82090E8
:1050A0008CEA09054FEA450C4CEAD57CCDF820C0C6
:1050B000C44463444FEA807C4CEA90004FEA431CAE
:1050C0004CEAD36904EA000C44EA000808EA010843
:1050D0004CEA080CCC44DFF87880E044DDF818C0D6
:1050E000DDF804908CEA090CDDF82C908CEA090CB0
:1050F000DDF824908CEA09054FEA450C4CEAD57C92
:10510000CDF824C0C44462444FEA847C4CEA940441
:105110004FEA421C4CEAD26903EA040C43EA040851
:1051200008EA00084CEA080CCC44DFF82480E0448C
:10513000DDF81CC0DDF808908CEA090CDDF8309031
:105140008CEA090C06E000009979825AA1EBD96E2D
:10515000DCBC1B8FDDF828908CEA09054FEA450C72
:105160004CEAD57CCDF828C0C44461444FEA837C26
:105170004CEA93034FEA411C4CEAD16902EA030C62
:1051800042EA030808EA04084CEA080CCC44DFF8B9
:105190006886E044DDF820C0DDF80C908CEA090C4C
:1051A000DDF834908CEA090CDDF82C908CEA0905C6
:1051B0004FEA450C4CEAD57CCDF82CC0C444604481
:1051C0004FEA827C4CEA9202DDF824C0DDF81080C0
:1051D0008CEA080CDDF838808CEA080CDDF83080A9
:1051E0008CEA08054FEA450C4CEAD5784FEA401C9A
:1051F0004CEAD06981EA020C8CEA030CCC44DFF85B
:10520000FC95CC44C4446444CDF830804FEA817CA2
:105210004CEA9101DDF828C0DDF814808CEA080C16
:10522000DDF83C808CEA080CDDF834808CEA080557
:105230004FEA450C4CEAD5784FEA441C4CEAD46955
:1052400080EA010C8CEA020CCC44DFF8B095CC4427
:10525000C4446344CDF834804FEA807C4CEA90002B
:10526000DDF82CC0DDF818808CEA080CDDF8008031
:105270008CEA080CDDF838808CEA08054FEA450C0A
:105280004CEAD5784FEA431C4CEAD36984EA000C17
:105290008CEA010CCC44DFF86495CC44C4446244ED
:1052A000CDF838804FEA847C4CEA9404DDF830C0B5
:1052B000DDF81C808CEA080CDDF804808CEA080C10
:1052C000DDF83C808CEA08054FEA450C4CEAD578BD
:1052D0004FEA421C4CEAD26983EA040C8CEA000CC7
:1052E000CC44DFF81895CC44C4446144CDF83C80EC
:1052F0004FEA837C4CEA9303DDF834C0DDF820806C
:105300008CEA080CDDF808808CEA080CDDF80080D7
:105310008CEA08054FEA450C4CEAD5784FEA411C67
:105320004CEAD16982EA030C8CEA040CCC44DFF825
:10533000CC94CC44C4446044CDF800804FEA827CD5
:105340004CEA9202DDF838C0DDF824808CEA080CC3
:10535000DDF80C808CEA080CDDF804808CEA080586
:105360004FEA450C4CEAD5784FEA401C4CEAD0692C
:1053700081EA020C8CEA030CCC44DFF88094CC4424
:10538000C4446444CDF804804FEA817C4CEA910126
:10539000DDF83CC0DDF828808CEA080CDDF81080D0
:1053A0008CEA080CDDF808808CEA08054FEA450C09
:1053B0004CEAD5784FEA441C4CEAD46980EA010CE7
:1053C0008CEA020CCC44DFF83494CC44C4446344EB
:1053D000CDF808804FEA807C4CEA9000DDF800C0F0
:1053E000DDF82C808CEA080CDDF814808CEA080CBF
:1053F000DDF80C808CEA08054FEA450C4CEAD578BC
:105400004FEA431C4CEAD36984EA000C8CEA010C95
:10541000CC44DFF8E893CC44C4446244CDF80C801B
:105420004FEA847C4CEA9404DDF804C0DDF8308057
:105430008CEA080CDDF818808CEA080CDDF8108086
:105440008CEA08054FEA450C4CEAD5784FEA421C35
:105450004CEAD26983EA040C8CEA000CCC44DFF8F5
:105460009C93CC44C4446144CDF810804FEA837CC3
:105470004CEA9303DDF808C0DDF834808CEA080CB0
:10548000DDF81C808CEA080CDDF814808CEA080535
:105490004FEA450C4CEAD5784FEA411C4CEAD169F9
:1054A00082EA030C8CEA040CCC44DFF85093CC4421
:1054B000C4446044CDF814804FEA827C4CEA9202E6
:1054C000DDF80CC0DDF838808CEA080CDDF82080AF
:1054D0008CEA080CDDF818808CEA08054FEA450CC8
:1054E0004CEAD5784FEA401C4CEAD06981EA020CBC
:1054F0008CEA030CCC44DFF80493CC44C4446444E9
:10550000CDF818804FEA817C4CEA9101DDF810C09B
:10551000DDF83C808CEA080CDDF824808CEA080C6D
:10552000DDF81C808CEA08054FEA450C4CEAD5787A
:105530004FEA441C4CEAD46980EA010C8CEA020C64
:10554000CC44DFF8B892CC44C4446344CDF81C800A
:105550004FEA807C4CEA9000DDF814C0DDF8008052
:105560008CEA080CDDF828808CEA080CDDF8208035
:105570008CEA08054FEA450C4CEAD5784FEA431C03
:105580004CEAD36984EA000C8CEA010CCC44DFF8C5
:105590006C92CC44C4446244CDF820804FEA847CB1
:1055A0004CEA9404DDF818C0DDF804808CEA080C9D
:1055B000DDF82C808CEA080CDDF824808CEA0805E4
:1055C0004FEA450C4CEAD5784FEA421C4CEAD269C6
:1055D00083EA040C8CEA000CCC44DFF82092CC4423
:1055E000C4446144CDF824804FEA837C4CEA9303A1
:1055F000DDF81CC0DDF808808CEA080CDDF830808E
:105600008CEA080CDDF828808CEA08054FEA450C86
:105610004CEAD5784FEA411C4CEAD16982EA030C86
:105620008CEA040CCC44DFF8D491CC44C4446044EC
:10563000CDF828804FEA827C4CEA9202DDF820C047
:10564000DDF80C808CEA080CDDF834808CEA080C5C
:10565000DDF82C808CEA08054FEA450C4CEAD57839
:105660004FEA401C4CEAD06981EA020C8CEA030C38
:10567000CC44DFF88891CC44C4446444CDF82C80F9
:105680004FEA817C4CEA9101DDF824C0DDF81080FE
:105690008CEA080CDDF838808CEA080CDDF83080E4
:1056A0008CEA08054FEA450C4CEAD5784FEA441CD1
:1056B0004CEAD46980EA010C8CEA020CCC44DFF895
:1056C0003C91CC44C4446344CDF830804FEA807CA4
:1056D0004CEA9000DDF828C0DDF814808CEA080C54
:1056E000DDF83C808CEA080CDDF834808CEA080593
:1056F0004FEA450C4CEAD5784FEA431C4CEAD36993
:1057000084EA000C8CEA010CCC44DFF8F090CC4425
:10571000C4446244CDF834804FEA847C4CEA94045B
:10572000DDF82CC0DDF818808CEA080CDDF800806C
:105730008CEA080CDDF838808CEA08054FEA450C45
:105740004CEAD5784FEA421C4CEAD26983EA040C51
:105750008CEA000CCC44DFF8A490CC44C4446144EF
:10576000CDF838804FEA837C4CEA9303DDF830C0F3
:10577000DDF81C808CEA080CDDF804808CEA080C4B
:10578000DDF83C808CEA08054FEA450C4CEAD578F8
:105790004FEA411C4CEAD16982EA030C8CEA040C02
:1057A000CC44DFF85890CC44C4446044CDF83C80ED
:1057B0004FEA827C4CEA9202D7F808C08444C7F8CA
:1057C00008C0D7F80CC00CEB0108C7F80C80D7F85C
:1057D00010C00CEB0208C7F81080D7F814C00CEB0F
:1057E0000308C7F81480D7F818C00CEB0408C7F8F2
:1057F000188010B0BDE8F083DCBC1B8FD6C162CA34
:1058000000210160416006498160064AC260CA43C6
:105810000261044AD2434261034A82617047000038
:105820000123456789ABCDEFF0E1D2C32DE9F0410B
:105830000446884615460DB9BDE8F081207800F091
:105840003F07C7F140062068284420602068206098
:105850002068A84202D26068401C606087B1B542EF
:105860000ED304F11C01C81932464146FAF79BFEDB
:1058700004F11C012046FEF735FBB044AD1B0027A8
:1058800006E041462046FEF72DFB08F14008403D6A
:10589000402DF6D235B104F11C01C8192A46414603
:1058A000FAF781FE00BFC7E710B500290AD00878D3
:1058B000002807D005487844FBF7F0FC002801D009
:1058C000002010BD0248784410BD00005E020000B8
:1058D0005602000010B500290AD00878002807D029
:1058E00005487844FBF7DAFC002801D0002010BD01
:1058F0000248784410BD00004E020000460200003D
:105900004FF04070E1EE100A7047FBF76ABA800072
:105910000000000000000000000000000000000087
:105920000000000000000000000000000000000077
:105930000000000000000000000000000000000067
:105940000000000000000000000000000000040053
:10595000000800000000000000020001000010002C
:10596000000000000000000030313233343536379B
:105970003839414243444546403058003031323393
:105980003435363738396162636465664030780093
:1059900002400000000000A00000000005400000E0
:1059A000000000C8000000000C4000000000409C07
:1059B00000000000194000000020BCBE00000000F4
:1059C00034400000BFC91B8E00000004B540000039
:1059D000504BCFD06607E2CF010000006C410000C1
:1059E0003E8251AADFEEA73401000000D942000038
:1059F000DCB5A0E23A301F97FFFFFFFFB44500007F
:105A0000FD25A0C8E9A3C14FFFFFFFFFFF3F000036
:105A10000000008000000000FF3F00000000008048
:105A2000000000007B226D6574686F64223A227466
:105A300068696E672E6576656E742E70726F70651C
:105A40007274792E706F7374222C226964223A2248
:105A5000323033333032333232222C227061726171
:105A60006D73223A7B22506F776572537769746346
:105A700068223A307D2C2276657273696F6E223A05
:105A800022312E302E30227D000000007B226D65F9
:105A900074686F64223A227468696E672E65766551
:105AA0006E742E70726F70657274792E706F73746D
:105AB000222C226964223A2232303333303233329C
:105AC00032222C22706172616D73223A7B22506FF8
:105AD000776572537769746368223A317D2C227638
